{
  "contractName": "Crowdfunding",
  "abi": [
    {
      "inputs": [],
      "stateMutability": "nonpayable",
      "type": "constructor"
    },
    {
      "inputs": [],
      "name": "author",
      "outputs": [
        {
          "internalType": "address",
          "name": "",
          "type": "address"
        }
      ],
      "stateMutability": "view",
      "type": "function",
      "constant": true
    },
    {
      "inputs": [],
      "name": "closed",
      "outputs": [
        {
          "internalType": "bool",
          "name": "",
          "type": "bool"
        }
      ],
      "stateMutability": "view",
      "type": "function",
      "constant": true
    },
    {
      "inputs": [],
      "name": "endTime",
      "outputs": [
        {
          "internalType": "uint256",
          "name": "",
          "type": "uint256"
        }
      ],
      "stateMutability": "view",
      "type": "function",
      "constant": true
    },
    {
      "inputs": [
        {
          "internalType": "address",
          "name": "",
          "type": "address"
        }
      ],
      "name": "joined",
      "outputs": [
        {
          "internalType": "uint256",
          "name": "",
          "type": "uint256"
        }
      ],
      "stateMutability": "view",
      "type": "function",
      "constant": true
    },
    {
      "inputs": [],
      "name": "price",
      "outputs": [
        {
          "internalType": "uint256",
          "name": "",
          "type": "uint256"
        }
      ],
      "stateMutability": "view",
      "type": "function",
      "constant": true
    },
    {
      "stateMutability": "payable",
      "type": "receive",
      "payable": true
    },
    {
      "inputs": [],
      "name": "receive2",
      "outputs": [],
      "stateMutability": "payable",
      "type": "function",
      "payable": true
    },
    {
      "inputs": [],
      "name": "withdrawFund",
      "outputs": [],
      "stateMutability": "nonpayable",
      "type": "function"
    },
    {
      "inputs": [],
      "name": "withdraw",
      "outputs": [],
      "stateMutability": "nonpayable",
      "type": "function"
    }
  ],
  "bytecode": "0x608060405266470de4df8200006003556000600460006101000a81548160ff02191690831515021790555034801561003657600080fd5b50336000806101000a81548173ffffffffffffffffffffffffffffffffffffffff021916908373ffffffffffffffffffffffffffffffffffffffff16021790555062015180426100869190610091565b600281905550610120565b600061009c826100e7565b91506100a7836100e7565b9250827fffffffffffffffffffffffffffffffffffffffffffffffffffffffffffffffff038211156100dc576100db6100f1565b5b828201905092915050565b6000819050919050565b7f4e487b7100000000000000000000000000000000000000000000000000000000600052601160045260246000fd5b610dfb8061012f6000396000f3fe60806040526004361061007f5760003560e01c8063a035b1fe1161004e578063a035b1fe14610272578063a6c3e6b91461029d578063e07fa3c1146102c8578063f887d019146102df576101f6565b80633197cbb6146101fb5780633ccfd60b14610226578063597e1fb51461023d57806384311aeb14610268576101f6565b366101f657600254421080156100a25750600460009054906101000a900460ff16155b6100e1576040517f08c379a00000000000000000000000000000000000000000000000000000000081526004016100d890610bdb565b60405180910390fd5b6000600160003373ffffffffffffffffffffffffffffffffffffffff1673ffffffffffffffffffffffffffffffffffffffff1681526020019081526020016000205414610163576040517f08c379a000000000000000000000000000000000000000000000000000000000815260040161015a90610bbb565b60405180910390fd5b6003543410156101a8576040517f08c379a000000000000000000000000000000000000000000000000000000000815260040161019f90610b5b565b60405180910390fd5b34600160003373ffffffffffffffffffffffffffffffffffffffff1673ffffffffffffffffffffffffffffffffffffffff168152602001908152602001600020819055506101f461031c565b005b600080fd5b34801561020757600080fd5b50610210610366565b60405161021d9190610c5b565b60405180910390f35b34801561023257600080fd5b5061023b61036c565b005b34801561024957600080fd5b506102526104d2565b60405161025f9190610b40565b60405180910390f35b6102706104e5565b005b34801561027e57600080fd5b50610287610657565b6040516102949190610c5b565b60405180910390f35b3480156102a957600080fd5b506102b261065d565b6040516102bf9190610b25565b60405180910390f35b3480156102d457600080fd5b506102dd610681565b005b3480156102eb57600080fd5b50610306600480360381019061030191906107eb565b6107be565b6040516103139190610c5b565b60405180910390f35b600066071afd498d00003073ffffffffffffffffffffffffffffffffffffffff16316103489190610cdd565b90508066470de4df82000061035d9190610c87565b60038190555050565b60025481565b60025442116103b0576040517f08c379a00000000000000000000000000000000000000000000000000000000081526004016103a790610bfb565b60405180910390fd5b600460009054906101000a900460ff1615610400576040517f08c379a00000000000000000000000000000000000000000000000000000000081526004016103f790610c1b565b60405180910390fd5b47678ac7230489e800001161044a576040517f08c379a000000000000000000000000000000000000000000000000000000000815260040161044190610b7b565b60405180910390fd5b3373ffffffffffffffffffffffffffffffffffffffff166108fc600160003373ffffffffffffffffffffffffffffffffffffffff1673ffffffffffffffffffffffffffffffffffffffff168152602001908152602001600020549081150290604051600060405180830381858888f193505050501580156104cf573d6000803e3d6000fd5b50565b600460009054906101000a900460ff1681565b600254421080156105035750600460009054906101000a900460ff16155b610542576040517f08c379a000000000000000000000000000000000000000000000000000000000815260040161053990610bdb565b60405180910390fd5b6000600160003373ffffffffffffffffffffffffffffffffffffffff1673ffffffffffffffffffffffffffffffffffffffff16815260200190815260200160002054146105c4576040517f08c379a00000000000000000000000000000000000000000000000000000000081526004016105bb90610bbb565b60405180910390fd5b600354341015610609576040517f08c379a000000000000000000000000000000000000000000000000000000000815260040161060090610b5b565b60405180910390fd5b34600160003373ffffffffffffffffffffffffffffffffffffffff1673ffffffffffffffffffffffffffffffffffffffff1681526020019081526020016000208190555061065561031c565b565b60035481565b60008054906101000a900473ffffffffffffffffffffffffffffffffffffffff1681565b60008054906101000a900473ffffffffffffffffffffffffffffffffffffffff1673ffffffffffffffffffffffffffffffffffffffff163373ffffffffffffffffffffffffffffffffffffffff161461070f576040517f08c379a000000000000000000000000000000000000000000000000000000000815260040161070690610b9b565b60405180910390fd5b678ac7230489e8000047101561075a576040517f08c379a000000000000000000000000000000000000000000000000000000000815260040161075190610c3b565b60405180910390fd5b6001600460006101000a81548160ff0219169083151502179055503373ffffffffffffffffffffffffffffffffffffffff166108fc479081150290604051600060405180830381858888f193505050501580156107bb573d6000803e3d6000fd5b50565b60016020528060005260406000206000915090505481565b6000813590506107e581610dae565b92915050565b6000602082840312156107fd57600080fd5b600061080b848285016107d6565b91505092915050565b61081d81610d37565b82525050565b61082c81610d49565b82525050565b600061083f600b83610c76565b91507f42696420746f6f206c6f770000000000000000000000000000000000000000006000830152602082019050919050565b600061087f603983610c76565b91507f43726f776466756e64696e67206d6565747320746865207374616e646172642c60008301527f20796f752063616e27742077697468647261772066756e6473000000000000006020830152604082019050919050565b60006108e5601683610c76565b91507f596f7520617265206e6f742074686520617574686f72000000000000000000006000830152602082019050919050565b6000610925602583610c76565b91507f596f7520686176652070617274696369706174656420696e2063726f7764667560008301527f6e64696e670000000000000000000000000000000000000000000000000000006020830152604082019050919050565b600061098b601483610c76565b91507f43726f776466756e64696e67206973206f7665720000000000000000000000006000830152602082019050919050565b60006109cb602483610c76565b91507f49742773206e6f74207965742074686520656e64206f662063726f776466756e60008301527f64696e67000000000000000000000000000000000000000000000000000000006020830152604082019050919050565b6000610a31605183610c76565b91507f43726f776466756e64696e67207265616368657320746865207374616e64617260008301527f642c20616e64207468652063726f776466756e64696e672066756e647320686160208301527f7665206265656e2077697468647261776e0000000000000000000000000000006040830152606082019050919050565b6000610abd602283610c76565b91507f446964206e6f74206d656574207468652063726f776466756e64696e6720676f60008301527f616c0000000000000000000000000000000000000000000000000000000000006020830152604082019050919050565b610b1f81610d75565b82525050565b6000602082019050610b3a6000830184610814565b92915050565b6000602082019050610b556000830184610823565b92915050565b60006020820190508181036000830152610b7481610832565b9050919050565b60006020820190508181036000830152610b9481610872565b9050919050565b60006020820190508181036000830152610bb4816108d8565b9050919050565b60006020820190508181036000830152610bd481610918565b9050919050565b60006020820190508181036000830152610bf48161097e565b9050919050565b60006020820190508181036000830152610c14816109be565b9050919050565b60006020820190508181036000830152610c3481610a24565b9050919050565b60006020820190508181036000830152610c5481610ab0565b9050919050565b6000602082019050610c706000830184610b16565b92915050565b600082825260208201905092915050565b6000610c9282610d75565b9150610c9d83610d75565b9250827fffffffffffffffffffffffffffffffffffffffffffffffffffffffffffffffff03821115610cd257610cd1610d7f565b5b828201905092915050565b6000610ce882610d75565b9150610cf383610d75565b9250817fffffffffffffffffffffffffffffffffffffffffffffffffffffffffffffffff0483118215151615610d2c57610d2b610d7f565b5b828202905092915050565b6000610d4282610d55565b9050919050565b60008115159050919050565b600073ffffffffffffffffffffffffffffffffffffffff82169050919050565b6000819050919050565b7f4e487b7100000000000000000000000000000000000000000000000000000000600052601160045260246000fd5b610db781610d37565b8114610dc257600080fd5b5056fea2646970667358221220baa1aee4118ee1a9cc801b6ca01883105d8663ba50e1a4b86479da7dd2f5dc8664736f6c63430008000033",
  "immutableReferences": {},
  "source": "pragma solidity =0.8.0;\n\n\ncontract Crowdfunding {\n    // \n    address public author;\n\n    // \n    mapping(address => uint) public joined;\n\n    // \n    uint constant Target = 10 ether;\n\n    // \n    uint public endTime;\n\n    // \n    uint public price  = 0.02 ether ;\n\n    // \n    bool public closed = false;\n\n    // \n    constructor() public {\n        author = msg.sender;\n        endTime = block.timestamp + 1 days;\n    }\n\n    // \n    function updatePrice() internal {\n        // address myAddress = address(this);\n\n        uint rise = (address(this)).balance * 0.002 ether;\n        // uint rise = 0.002 ether;\n        price = 0.02 ether + rise;\n    }\n\n    //  \n    function receive2() external payable {\n        require(block.timestamp < endTime && !closed  , \"Crowdfunding is over\");\n        require(joined[msg.sender] == 0 , \"You have participated in crowdfunding\");\n\n        require (msg.value >= price, \"Bid too low\");\n        joined[msg.sender] = msg.value;\n\n        updatePrice();\n     }\n\n    //  \n    receive() external payable {\n        require(block.timestamp < endTime && !closed  , \"Crowdfunding is over\");\n        require(joined[msg.sender] == 0 , \"You have participated in crowdfunding\");\n\n        require (msg.value >= price, \"Bid too low\");\n        joined[msg.sender] = msg.value;\n\n        updatePrice();\n     }\n\n    // \n    function withdrawFund() external {\n        require(msg.sender == author, \"You are not the author\");\n        require(address(this).balance >= Target, \"Did not meet the crowdfunding goal\");\n        closed = true;\n        payable(msg.sender).transfer(address(this).balance);\n    }\n\n    // \n    function withdraw() external {\n        require(block.timestamp > endTime, \"It's not yet the end of crowdfunding\");\n        require(!closed, \"Crowdfunding reaches the standard, and the crowdfunding funds have been withdrawn\");\n        require(Target > address(this).balance, \"Crowdfunding meets the standard, you can't withdraw funds\");\n\n        payable(msg.sender).transfer(joined[msg.sender]);\n    }\n\n}\n\n",
  "sourcePath": "/home/emmett/ERC20/contracts/Crowdfunding.sol",
  "compiler": {
    "name": "solc",
    "version": "0.8.0+commit.c7dfd78e.Emscripten.clang"
  },
  "schemaVersion": "3.4.3",
  "updatedAt": "2021-10-14T07:52:09.330Z",
  "networkType": "ethereum",
  "devdoc": {
    "kind": "dev",
    "methods": {},
    "version": 1
  },
  "userdoc": {
    "kind": "user",
    "methods": {},
    "version": 1
  }
}