{
  "contractName": "ERC20Detailed",
  "abi": [
    {
      "inputs": [
        {
          "internalType": "string",
          "name": "name",
          "type": "string"
        },
        {
          "internalType": "string",
          "name": "symbol",
          "type": "string"
        },
        {
          "internalType": "uint8",
          "name": "decimals",
          "type": "uint8"
        }
      ],
      "stateMutability": "nonpayable",
      "type": "constructor"
    },
    {
      "inputs": [],
      "name": "name",
      "outputs": [
        {
          "internalType": "string",
          "name": "",
          "type": "string"
        }
      ],
      "stateMutability": "view",
      "type": "function"
    },
    {
      "inputs": [],
      "name": "symbol",
      "outputs": [
        {
          "internalType": "string",
          "name": "",
          "type": "string"
        }
      ],
      "stateMutability": "view",
      "type": "function"
    },
    {
      "inputs": [],
      "name": "decimals",
      "outputs": [
        {
          "internalType": "uint8",
          "name": "",
          "type": "uint8"
        }
      ],
      "stateMutability": "view",
      "type": "function"
    }
  ],
  "bytecode": "0x608060405234801561001057600080fd5b506040516106dd3803806106dd833981810160405281019061003291906101a3565b8260009080519060200190610048929190610083565b50816001908051906020019061005f929190610083565b5080600260006101000a81548160ff021916908360ff16021790555050505061036a565b82805461008f906102c3565b90600052602060002090601f0160209004810192826100b157600085556100f8565b82601f106100ca57805160ff19168380011785556100f8565b828001600101855582156100f8579182015b828111156100f75782518255916020019190600101906100dc565b5b5090506101059190610109565b5090565b5b8082111561012257600081600090555060010161010a565b5090565b600061013961013484610253565b610222565b90508281526020810184848401111561015157600080fd5b61015c848285610290565b509392505050565b600082601f83011261017557600080fd5b8151610185848260208601610126565b91505092915050565b60008151905061019d81610353565b92915050565b6000806000606084860312156101b857600080fd5b600084015167ffffffffffffffff8111156101d257600080fd5b6101de86828701610164565b935050602084015167ffffffffffffffff8111156101fb57600080fd5b61020786828701610164565b92505060406102188682870161018e565b9150509250925092565b6000604051905081810181811067ffffffffffffffff8211171561024957610248610324565b5b8060405250919050565b600067ffffffffffffffff82111561026e5761026d610324565b5b601f19601f8301169050602081019050919050565b600060ff82169050919050565b60005b838110156102ae578082015181840152602081019050610293565b838111156102bd576000848401525b50505050565b600060028204905060018216806102db57607f821691505b602082108114156102ef576102ee6102f5565b5b50919050565b7f4e487b7100000000000000000000000000000000000000000000000000000000600052602260045260246000fd5b7f4e487b7100000000000000000000000000000000000000000000000000000000600052604160045260246000fd5b61035c81610283565b811461036757600080fd5b50565b610364806103796000396000f3fe608060405234801561001057600080fd5b50600436106100415760003560e01c806306fdde0314610046578063313ce5671461006457806395d89b4114610082575b600080fd5b61004e6100a0565b60405161005b9190610223565b60405180910390f35b61006c610132565b6040516100799190610245565b60405180910390f35b61008a610149565b6040516100979190610223565b60405180910390f35b6060600080546100af906102bc565b80601f01602080910402602001604051908101604052809291908181526020018280546100db906102bc565b80156101285780601f106100fd57610100808354040283529160200191610128565b820191906000526020600020905b81548152906001019060200180831161010b57829003601f168201915b5050505050905090565b6000600260009054906101000a900460ff16905090565b606060018054610158906102bc565b80601f0160208091040260200160405190810160405280929190818152602001828054610184906102bc565b80156101d15780601f106101a6576101008083540402835291602001916101d1565b820191906000526020600020905b8154815290600101906020018083116101b457829003601f168201915b5050505050905090565b60006101e682610260565b6101f0818561026b565b9350610200818560208601610289565b6102098161031d565b840191505092915050565b61021d8161027c565b82525050565b6000602082019050818103600083015261023d81846101db565b905092915050565b600060208201905061025a6000830184610214565b92915050565b600081519050919050565b600082825260208201905092915050565b600060ff82169050919050565b60005b838110156102a757808201518184015260208101905061028c565b838111156102b6576000848401525b50505050565b600060028204905060018216806102d457607f821691505b602082108114156102e8576102e76102ee565b5b50919050565b7f4e487b7100000000000000000000000000000000000000000000000000000000600052602260045260246000fd5b6000601f19601f830116905091905056fea26469706673582212204d6d04aa8cd6e2be1293eeafda18ee824418859e7dcf2fd445cf2e1a61d7489e64736f6c63430008000033",
  "immutableReferences": {},
  "source": "pragma solidity^0.8.0;\n\n// import \"https://github.com/OpenZeppelin/openzeppelin-contracts/blob/master/contracts/token/ERC20/IERC20.sol\";\n// import \"https://github.com/OpenZeppelin/openzeppelin-contracts/blob/master/contracts/utils/math/SafeMath.sol\";\n\nimport \"@openzeppelin/contracts/token/ERC20/IERC20.sol\";\n\nimport \"@openzeppelin/contracts/utils/math/SafeMath.sol\";\n\n\n contract ERC20 is IERC20 {\n\n  using SafeMath for uint256;\n\n\n  mapping (address => uint256)private _balances;\n  mapping (address => mapping (address => uint256))private _allowances;\n  uint256 private _totalSupply;\n\n\n  function totalSupply() public view override returns (uint256) {\n    return _totalSupply;\n  }\n\n  function balanceOf (address account) public view override returns (uint256){\n    return _balances[account];\n  }\n  function allowance(address owner,address spender) public view override returns (uint256){\n    return _allowances[owner][spender];\n  }\n\n\n  function transfer(address recipient ,uint256 amout) public override returns(bool){\n    _transfer(msg.sender,recipient,amout);\n    return true;\n  }\n  function _transfer(address sender,address recipient,uint256 amount) internal {\n    require(sender != address(0), \"ERC20:transfer from the zero address\");\n    require(recipient != address(0),\"ERC20:teansfer to the zero address\");\n    _balances[sender] = _balances[sender].sub(amount);\n    _balances[recipient] = _balances[recipient].add(amount);\n    emit Transfer(sender,recipient,amount);\n  }\n\n  function approve(address spender,uint256 value)public override returns (bool){\n    _approve(msg.sender,spender,value);\n    return true;\n  }\n  function _approve(address owner,address spender,uint256 value) internal {\n    require(owner != address(0),\"ERC20: approve from the zero address\");\n    require(spender != address(0), \"ERC20:aprove to the zero address\");\n    _allowances[owner][spender] = value;\n    emit Approval(owner,spender,value);\n  }\n\n  function transferFrom(address sender,address recipient,uint256 amount)public override returns(bool) {\n    _transfer(sender,recipient,amount);\n    _approve(sender,msg.sender,_allowances[sender][msg.sender].sub(amount));\n    return true;\n  }\n\n  function _mint(address account,uint256 amount) internal {\n    require(account != address(0),\"ERC20:mint to the zero address\");\n    _totalSupply = _totalSupply.add(amount);\n    _balances[account] = _balances[account].add(amount);\n    emit Transfer(address(0),account,amount);\n  }\n}\n\n\n\ncontract ERC20Detailed {\n  string private _name;\n  string private _symbol;\n  uint8 private _decimals;\n  constructor (string memory name,string memory symbol,uint8 decimals) {\n    _name =name;\n    _symbol = symbol;\n    _decimals = decimals;\n  }\n  function name() public view returns (string memory){\n    return _name;\n  }\n  function symbol() public view returns (string memory){\n    return _symbol;\n  }\n  function decimals() public view returns (uint8 ){\n    return _decimals;\n  }\n}\n\n\ncontract MyToken is ERC20,ERC20Detailed(\"My Token\",\"MT\",4){\n  constructor() public {\n    _mint(msg.sender,12000000000*10**4);\n  }\n}\n",
  "sourcePath": "/home/emmett/ERC20/contracts/MyToken.sol",
  "compiler": {
    "name": "solc",
    "version": "0.8.0+commit.c7dfd78e.Emscripten.clang"
  },
  "schemaVersion": "3.4.3",
  "updatedAt": "2021-10-14T07:26:31.692Z",
  "devdoc": {
    "kind": "dev",
    "methods": {},
    "version": 1
  },
  "userdoc": {
    "kind": "user",
    "methods": {},
    "version": 1
  }
}